:020000020000FC
:100000000FE004B907B900E00AB969B1613009F03D
:10001000FCCFE5E00E9416000E946B000E94CC001D
:100020000E946B000E9416000E943B0146E036E0F1
:1000300011E015B923E028B924E028B90E94430152
:10004000139515B922E028B925E028B90E9443018B
:10005000139515B921E028B922E028B925E028B97F
:1000600028E028B90E944301139515B922E028B968
:1000700026E028B927E028B928E028B90E944301E2
:10008000139515B922E028B928E028B90E94430148
:10009000139515B923E028B926E028B927E028B937
:1000A0000E944301139515B923E028B924E028B92B
:1000B00025E028B90E944301139515B923E028B91A
:1000C00025E028B90E9443013A9519F44A9511F4A4
:1000D0000895AECFACCF43E039E011E015B923E08D
:1000E00028B924E028B90E944301139515B922E0EC
:1000F00028B923E028B924E028B925E028B90E94CE
:100100004301139515B921E028B922E028B925E06B
:1001100028B928E028B90E944301139515B922E0B7
:1001200028B926E028B927E028B928E028B90E9494
:100130004301139515B922E028B926E028B927E034
:1001400028B928E028B90E944301139515B923E086
:1001500028B924E028B925E028B926E028B927E005
:1001600028B90E944301139515B923E028B924E06A
:1001700028B925E028B90E944301139515B923E059
:1001800028B925E028B90E9443013A9519F44A9507
:1001900011F40895A2CFA0CF46E036E011E015B9E2
:1001A00023E028B924E028B90E944301139515B92A
:1001B00022E028B923E028B924E028B925E028B9AD
:1001C0000E944301139515B921E028B922E028B90E
:1001D00024E028B925E028B928E028B90E94430185
:1001E000139515B922E028B923E028B924E028B9ED
:1001F00025E028B926E028B927E028B928E028B961
:100200000E944301139515B922E028B923E028B9CB
:1002100024E028B925E028B926E028B927E028B944
:1002200028E028B90E944301139515B923E028B9A5
:1002300024E028B925E028B926E028B927E028B924
:100240000E944301139515B923E028B924E028B989
:1002500025E028B90E944301139515B923E028B978
:1002600025E028B90E9443013A9519F44A9511F402
:10027000089594CF92CF43E034EE3A95F1F74A9542
:0C028000D9F7C3CE089520E028B90895F6
:00000001FF
