:020000020000FC
:100000000FEF04B900EF0AB900E20BB900E010E00D
:1000100020E030E040E090E0A0E0B0E0C0E005B9D2
:1000200059B15F70513041F159B15F705330F9F0FF
:1000300059B15F705730E1F059B15F705F30C9F06E
:100040002D9A0E9484002D982E9A2C9A0E9484004A
:100050002E982C982F9A0E9484002C9A2D9A0E94F8
:10006000840003950F700A30D0F200E0D8CF1CC096
:100070002CC03AC0102F93959030E1F32E9A2C9A11
:100080000E9484002E982C982F9A0E9484002C9A0B
:100090002D9A0E94840003950F700A3000F200E050
:1000A000BECF202FA395BBCFA030D9F32F9A0E94AB
:1000B00084002C9A2D9A0E94840003950F700A30B8
:1000C00090F300E0ACCF302FB395B030E1F32C9A31
:1000D0002D9A2F9A0E94840003950F700A3018F30E
:1000E00000E09DCF402FC395C030E1F3133049F4B9
:1000F000213039F4313029F4423019F400E40BB9DD
:10010000FDCF00E10BB9FDCF6FEF70ED81E08A9577
:0C011000F1F77A95D9F76A95C1F70895C8
:00000001FF
